S0170000436F6E74726F6C6C65724E4E696C732E7372656305
S11300000C947A010C9497010C9497010C94970129
S11300100C9497010C9497010C9497010C949701FC
S11300200C9497010C9497010C9497010C949701EC
S11300300C9497010C9497010C9497010C949701DC
S11300400C9497010C9497010C9497010C949701CC
S11300500C9497010C9497010C9497010C949701BC
S11300600C9497010C94970100000000000000001C
S1130070002F000000000700070000147F147F1405
S113008000242A7F2A12006264081323003649558B
S1130090225000000503000000001C224100000063
S11300A041221C000014083E08140008083E0808F9
S11300B0000000A060000008080808080000606054
S11300C00000002010080402003E5149453E000093
S11300D0427F4000004261514946002141454B3175
S11300E0001814127F10002745454539003C4A4941
S11300F049300001710905030036494949360006B3
S11301004949291E0000363600000000563600001A
S11301100008142241000014141414140000412295
S1130120140800020151090600324959513E007C6D
S11301301211127C007F49494936003E4141412257
S1130140007F4141221C007F49494941007F090940
S11301500901003E4149497A007F0808087F0000F0
S1130160417F4100002040413F01007F08142241AB
S1130170007F40404040007F020C027F007F040863
S1130180107F003E4141413E007F09090906003EBF
S11301904151215E007F09192946004649494931E8
S11301A00001017F0101003F4040403F001F20400B
S11301B0201F003F4038403F0063140814630007C9
S11301C00870080700615149454300007F41410020
S11301D000552A552A55000041417F0000040201C0
S11301E0020400404040404000000102040000209E
S11301F054545478007F48444438003844444420DC
S113020000384444487F00385454541800087E0988
S113021001020018A4A4A47C007F08040478000050
S1130220447D4000004080847D00007F102844000D
S11302300000417F4000007C04180478007C08041E
S1130240047800384444443800FC2424241800185A
S1130250242418FC007C0804040800485454542046
S113026000043F444020003C4040207C001C2040CF
S1130270201C003C4030403C004428102844001C12
S1130280A0A0A07C004464544C44000008774100C2
S11302900000006300000000417708000008040823
S11302A00804003A4040207A003D4040403D00218F
S11302B054545479007D1211127D00394444443958
S11302C0003D4242423D000205020000007E014919
S11302D05573007C1010081CAE2000B0C8001040FC
S11302E0813FA1A6A83FA4D300D5F0D922DA12DB1E
S11302F0208D140011241FBECFEFD8E0DEBFCDBF88
S113030011E0A0E0B1E0E4E4FAE002C005900D924F
S1130310AA31B107D9F725E0AAE1B1E001C01D92E5
S1130320A832B207E1F70E9413040C9420050C9440
S113033000001092B90088E48093B80084E08093B0
S1130340BC00089594EA9093BC00ECEBF0E090813B
S11303509923ECF78093BB0084E88093BC00ECEB1A
S1130360F0E080818823ECF7089584E98093BC0051
S113037008958093BB0084E88093BC00ECEBF0E02C
S113038080818823ECF70895EF92FF920F931F93D7
S1130390CF93DF937C01162F88E70E94A20180E0AF
S11303A00E94B901112371F0E7011150012F10E0EF
S11303B00F5F1F4F0E0D1F1D89910E94B901C017B9
S11303C0D107D1F70E94B501DF91CF911F910F9111
S11303D0FF90EF900895EF92FF920F931F93CF93A6
S11303E0DF937C018B0188E70E94A20180E40E94D4
S11303F0B9010115110549F0E7010E0D1F1D899181
S11304000E94B901C017D107D1F70E94B501DF914D
S1130410CF911F910F91FF90EF900895CF93DF93A9
S113042000D000D01F92CDB7DEB7863138F56830E2
S113043028F5982F990F890F880FEAE1F5E080835A
S113044061836055698391E29A8392E0980F9F706B
S11304509B8390E00296807F992795958795959543
S113046087959595879595958795805F8C838FE77C
S11304708D8365E0CE0101960E94C4010F900F9018
S11304800F900F900F90DF91CF91089560E080E07E
S11304900E940E0208950F931F93CF93DF930AE1F6
S11304A011E0C0E0D0E8F8018D2F11928A95E9F7A8
S11304B06C2F80E00E940E0260E870E0C8010E9488
S11304C0EB01CF5F00581F4FC83069F70E94460206
S11304D0DF91CF911F910F9108951F93CF93DF93D5
S11304E0CDB7DEB76C970FB6F894DEBF0FBECDBFA5
S11304F0182F0E949901E8EDF2E0DE0111969E01A9
S1130500245E3F4F84918D933196A217B307D1F7A0
S11305101C8F6CE1CE0101960E94C4010E944B0223
S11305206C960FB6F894DEBF0FBECDBFDF91CF91AE
S11305301F9108954F925F926F927F929F92AF9214
S1130540BF92CF92DF92EF92FF920F931F93CF93BC
S1130550DF93CDB7DEB72C970FB6F894DEBF0FBE8E
S1130560CDBF893001F118F4883039F052C08A3097
S1130570E9F18D3009F447C04CC00AE115E0F801F7
S11305808081909100016181891B0E940E0280E2AA
S11305900E949A02F8018081909100016181891B77
S11305A00E940E02EDC080911A0590910001292F3E
S11305B030E0220F331F220F331FB901680F711D62
S11305C045E150E02A01421A530A6415750540F4C6
S11305D0990F990F60911B05890F0E940E02D0C0DC
S11305E060911B0585E10E940E02CAC080911B0523
S11305F0873008F0C5C060910001680F80911A052A
S11306000E940E02BDC060911B0580E00E940E0294
S1130610B7C090901A050F2EF9E75F2EF02D5914EC
S113062008F4AEC0803208F4ABC08052909100014F
S1130630923009F085C09E012F5F3F4F790190E011
S11306405C01AA0CBB1C8A0D9B1D880F991FFC0121
S1130650E859FF4F5F013E01FDE06F0E711C690117
S113066001E010E0D60111961C921E92F50144910E
S113067021E030E080E090E0E42FF0E0AF01082ECC
S113068002C0559547950A94E2F740FF1BC06D914F
S11306907C911197A801022E02C0440F551F0A94A1
S11306A0E2F7642B752BAC01440F551F280102C0DF
S11306B0440C551C4A95E2F7A201462B572B119680
S11306C05C934E9301962E5F3F4F88309105B1F6AF
S11306D022E0C20ED11C3FEFA31AB30AC614D704FA
S11306E009F0C0CFE92DF0E090911B05892F90E02F
S11306F001969695982F882797958795DF01A80FDF
S1130700B91FA65EBE4FE80FF91FAF0146565F4FF3
S1130710F70180819181F2E0EF0EF11C9C93119618
S11307209C931197FA018083818312964E5F5F4FE9
S1130730E614F70469F78CE0890D80931A0520C04C
S113074020911B0590E0FC01EE0FFF1FE80FF91F3D
S1130750EE0FFF1FE859FF4FA92DB0E030E8239FAB
S1130760A00DB11D1124A65EBE4F86E094919D9309
S1130770815031968111FACF86E0890D80931A0554
S11307802C960FB6F894DEBF0FBECDBFDF91CF918C
S11307901F910F91FF90EF90DF90CF90BF90AF909B
S11307A09F907F906F905F904F900895CF93DF93C9
S11307B0EC018881882331F021960E949A02899164
S11307C08111FBCFDF91CF9108950F931F93CF93A6
S11307D00AE111E0C0E06C2F80E00E940E0260E8A4
S11307E070E0C8010E94EB01CF5F00581F4FC83072
S11307F091F7CF911F910F910895CF93DF93EA0161
S11308006D5F919581959109865F0E940E02CE01DC
S11308100E94D60387E191E00E94D6030E94E5037B
S1130820DF91CF910895CF93DF93CDB7DEB72897AB
S11308300FB6F894DEBF0FBECDBF8FEA0E946D02E3
S11308408FE78AB98AE0EEE1F5E0DF011D928A952F
S1130850E9F780E480937C0087E880937A000F2E88
S1130860FCE7CF2ED12CF02D332433940AE710E08B
S11308700F2EF8E78F2E912CF02D3F010F2EF3E56C
S11308804F2E512CF02DF601808183258083D801D1
S11308908C9180648C93F801808186FDFCCFD40117
S11308A0AD90BC90F601808183258083D8018C9122
S11308B080648C93F801808186FDFCCFD401ED9097
S11308C0FC904AE0BE016B5F7F4FC7010E94EB04BE
S11308D062E080E00E940E0281E091E00E94D60373
S11308E0CE0105960E94D60385E191E00E94D603CD
S11308F00E94E5034AE0BE016F5F7F4FC5010E947D
S1130900EB0460E080E00E940E028AE091E00E9425
S1130910D603CE0101960E94D60383E191E00E94A2
S1130920D6039501A1E7B0EE0E94DC04880F892F5D
S1130930881F990B91954DEF480F40931C05970123
S113094036952795ABE7B4E10E94DC04969587952C
S11309508A5080931D058230A0F4443030F086E440
S113096090E0F301918380831FC0423030F0E6E6CB
S1130970F0E0D301ED93FC9317C0D3014D925C9248
S113098013C0442371F0863030F086E490E0F30124
S11309909183808309C0E2E7F0E0D301ED93FC93F7
S11309A003C0D3014D925C92A30160E070E080E04B
S11309B090E00E94FD0367CFA29FB001B39FC001E6
S11309C0A39F700D811D1124911DB29F700D811D77
S11309D01124911D0895BB274A3031F4992322F440
S11309E0BDE2909581959F4F0C94F704BB27FB01C2
S11309F05527AA27880F991FAA1FA41710F0A41B14
S1130A0083955051B9F7A05DAA3308F0A95DA1936D
S1130A10009779F7B111B1931192CB010C941005A1
S1130A20DC01FC01672F71917723E1F7329704C051
S1130A307C916D9370836291AE17BF07C8F30895DC
S1070A40F894FFCF54
S1130A4401792061786973202000782061786973C2
S10D0A5420200020202020200000B4
S9030000FC
