S0170000436F6E74726F6C6C65724E4E696C732E7372656305
S11300000C9442000C945F000C945F000C945F000D
S11300100C945F000C945F000C945F000C945F00E0
S11300200C945F000C945F000C945F000C945F00D0
S11300300C945F000C945F000C945F000C945F00C0
S11300400C945F000C945F000C945F000C945F00B0
S11300500C945F000C945F000C945F000C945F00A0
S11300600C945F000C945F00AE2000B0C8001040F8
S1130070813FA1A6A83FA4D300D5F0D922DA12DB90
S1130080208D140011241FBECFEFD8E0DEBFCDBFFA
S113009011E0A0E0B1E0E2E5F3E002C005900D92CA
S11300A0A030B107D9F725E0A0E0B1E001C01D926E
S11300B0A230B207E1F70E9494010C94A7010C94BA
S11300C000001092B90088E48093B80084E0809323
S11300D0BC00089594EA9093BC00ECEBF0E09081AE
S11300E09923ECF78093BB0084E88093BC00ECEB8D
S11300F0F0E080818823ECF7089584E98093BC00C4
S113010008958093BB0084E88093BC00ECEBF0E09E
S113011080818823ECF70895EF92FF920F931F9349
S1130120CF93DF937C01162F88E70E946A0080E05A
S11301300E948100112371F0E7011150012F10E09A
S11301400F5F1F4F0E0D1F1D89910E948100C01764
S1130150D107D1F70E947D00DF91CF911F910F91BC
S1130160FF90EF900895EF92FF920F931F93CF9318
S1130170DF937C018B0188E70E946A0080E40E947F
S113018081000115110549F0E7010E0D1F1D89912C
S11301900E948100C017D107D1F70E947D00DF9132
S11301A0CF911F910F91FF90EF900895CF93DF931C
S11301B000D000D01F92CDB7DEB7863138F5683055
S11301C028F5982F990F890F880FE0E0F5E08083D8
S11301D061836055698391E29A8392E0980F9F70DE
S11301E09B8390E00296807F9927959587959595B6
S11301F087959595879595958795805F8C838FE7EF
S11302008D8365E0CE0101960E948C000F900F90C3
S11302100F900F900F90DF91CF91089560E080E0F0
S11302200E94D60008950F931F93CF93DF9300E0AD
S113023011E0C0E0D0E8F8018D2F11928A95E9F71A
S11302406C2F80E00E94D60060E870E0C8010E9434
S1130250B300CF5F00581F4FC83069F70E940E01EA
S1130260DF91CF911F910F9108951F93CF93DF9347
S1130270CDB7DEB76C970FB6F894DEBF0FBECDBF17
S1130280182F0E946100E8E6F0E0DE0111969E015D
S1130290245E3F4F84918D933196A217B307D1F713
S11302A01C8F6CE1CE0101960E948C000E94130108
S11302B06C960FB6F894DEBF0FBECDBFDF91CF9121
S11302C01F9108950F931F93CF9300E011E0C0E0B6
S11302D06C2F80E00E94D60060E870E0C8010E94A4
S11302E0B300CF5F00581F4FC83091F7CF911F91D3
S11302F00F9108951092C50087E68093C400E0EC46
S1130300F0E0108288E98093C10086E08093C20007
S11303108081806480830895E0ECF0E0908195FF13
S1130320FDCF8093C60008958FEA0E9435010E9494
S11303307A018FE78AB980E480937C0087E8809310
S11303407A008AE70E948C010E946201FACFF89435
S1050350FFCFD9
S9030000FC
