S016000052656D6F74436F6E74726F6C65722E737265634F
S11300000C9484010C94A1010C94A1010C94A10101
S11300100C94A1010C94A1010C94A1010C94A101D4
S11300200C94A1010C94A1010C94A1010C94A101C4
S11300300C94A1010C94A1010C94A1010C94A101B4
S11300400C94A1010C94A1010C94BD040C94A10185
S11300500C94A1010C94A1010C94A1010C94A10194
S11300600C94A1010C94A101BC5F9C60A461846206
S1130070B6639664B0659F66B567FFFF0000000035
S113008000000000002F000000000700070000141B
S11300907F147F1400242A7F2A1200626408132329
S11300A000364955225000000503000000001C22C0
S11300B04100000041221C000014083E08140008FE
S11300C0083E0808000000A06000000808080808AE
S11300D0000060600000002010080402003E514946
S11300E0453E0000427F40000042615149460021E4
S11300F041454B31001814127F10002745454539FE
S1130100003C4A4949300001710905030036494958
S1130110493600064949291E000036360000000011
S1130120563600000008142241000014141414145C
S11301300000412214080002015109060032495905
S1130140513E007C1211127C007F49494936003E21
S113015041414122007F4141221C007F49494941DC
S1130160007F09090901003E4149497A007F0808D6
S1130170087F0000417F4100002040413F01007F93
S113018008142241007F40404040007F020C027F5F
S1130190007F0408107F003E4141413E007F090971
S11301A00906003E4151215E007F09192946004697
S11301B0494949310001017F0101003F4040403F6E
S11301C0001F2040201F003F4038403F00631408B8
S11301D01463000708700807006151494543000093
S11301E07F41410000552A552A55000041417F00B6
S11301F000040201020400404040404000000102AB
S11302000400002054545478007F48444438003893
S11302104444442000384444487F0038545454181B
S113022000087E0901020018A4A4A47C007F08042D
S113023004780000447D4000004080847D00007FFD
S1130240102844000000417F4000007C041804781A
S1130250007C0804047800384444443800FC242416
S113026024180018242418FC007C080404080048FE
S11302705454542000043F444020003C4040207C1F
S1130280001C2040201C003C4030403C004428100E
S11302902844001CA0A0A07C004464544C440000EA
S11302A00877410000000063000000004177080067
S11302B0000804080804003A4040207A003D404009
S11302C0403D002154545479007D1211127D0039AF
S11302D044444439003D4242423D000205020000CC
S11302E0007E01495573007C1010081CAE2000B03C
S11302F0C8001040813FA1A6A83FA4D300D5F0D9DF
S113030022DA12DB208D140011241FBECFEFD8E0B7
S1130310DEBFCDBF11E0A0E0B1E0EEE0FCE002C042
S113032005900D92AE34B107D9F721E0AEE4B1E007
S113033001C01D92A235B207E1F70E94DC040C94BF
S113034005060C9400001092B90088E48093B8006C
S113035084E08093BC00089594EA9093BC0020E468
S113036031E0ECEBF0E009C02150310931F4809127
S11303705001816080935001089590819923A4F7DE
S11303808093BB0084E88093BC0080E491E0ECEBB4
S1130390F0E008C0019731F48091500182608093AD
S11303A05001089520812223ACF7089584E98093B5
S11303B0BC0008958093BB0084E88093BC0080E473
S11303C091E0ECEBF0E008C0019731F4809150012A
S11303D0846080935001089520812223ACF708950E
S11303E0EF92FF920F931F93CF93DF937C01162F0D
S11303F088E70E94AC0180E00E94DA01112371F0C9
S1130400E7011150012F10E00F5F1F4F0E0D1F1D4C
S113041089910E94DA01C017D107D1F70E94D60151
S1130420DF91CF911F910F91FF90EF900895EF927C
S1130430FF920F931F93CF93DF937C018B0188E787
S11304400E94AC0180E40E94DA010115110549F013
S1130450E7010E0D1F1D89910E94DA01C017D10713
S1130460D1F70E94D601DF91CF911F910F91FF9098
S1130470EF900895CF93DF9300D000D01F92CDB7B3
S1130480DEB7863138F5683028F5982F990F890F33
S1130490880FEEE4F1E0808361836055698391E223
S11304A09A8392E0980F9F709B8390E00296807FDE
S11304B0992795958795959587959595879595957C
S11304C08795805F8C838FE78D8365E0CE010196ED
S11304D00E94F0010F900F900F900F900F90DF91FA
S11304E0CF91089560E080E00E943A0208951F933E
S11304F0CF93DF93CDB7DEB7C058D1090FB6F894C8
S1130500DEBF0FBECDBFFE01319680E8DF011D9234
S11305108A95E9F710E0612F80E00E943A0260E8D2
S113052070E0CE0101960E9417021F5F183099F700
S11305300E947202C058DF4F0FB6F894DEBF0FBEA0
S1130540CDBFDF91CF911F9108951F93CF93DF9378
S1130550CDB7DEB76C970FB6F894DEBF0FBECDBF34
S1130560182F0E94A301ECEEF2E0DE0111969E0129
S1130570245E3F4F84918D933196A217B307D1F730
S11305801C8F6CE1CE0101960E94F0010E9477025B
S11305906C960FB6F894DEBF0FBECDBFDF91CF913E
S11305A01F9108956F927F928F929F92AF92BF9204
S11305B0CF92DF92EF92FF920F931F93CF93DF932B
S11305C0CDB7DEB761970FB6F894DEBF0FBECDBFCF
S11305D0893001F118F4883039F052C08A30E9F1D9
S11305E08D3009F447C04CC00EE411E0F80180815D
S11305F0909100016181891B0E943A0280E20E946D
S1130600D202F8018081909100016181891B0E94CE
S11306103A026AC180914E0190910001292F30E085
S1130620220F331F220F331FB901680F711D45E1DB
S113063050E03A01621A730A6615770540F4990F7F
S1130640990F60914F01890F0E943A024DC1609148
S11306504F0185E10E943A0247C180914F018730E2
S113066008F042C160910001680F80914E010E9420
S11306703A023AC160914F0180E00E943A0234C1CB
S113068090914E019A3708F02FC1803208F42CC1A2
S11306900F2EF0EEFF2EF02DF80E49E650E0FA0191
S11306A08491F81608F403C184918F3F09F41CC1A6
S11306B0E8E6F0E024918F2D90E030E020523109FB
S11306C02817390769F060E011C0F901EE0FFF1F28
S11306D0E859FF4FE491F0E0B097E817F90731F4D7
S11306E0FA01F490FFEFFF12E2C0FEC06F5F262F05
S11306F030E0A901440F551F47595F4FFA01749127
S11307007F3F19F7F1C0D60111961C921E92F50194
S1130710449121E030E080E090E0E42FF0E0AF018C
S1130720082E02C0559547950A94E2F740FF1BC076
S11307306D917C911197A701022E02C0440F551FA1
S11307400A94E2F7642B752BAC01440F551F370153
S113075002C0660C771C4A95E2F7A301462B572B7F
S113076011965C934E9301962E5F3F4F883091050E
S1130770B1F622E0C20ED11C3FEFA31AB30AC8148B
S1130780D90409F0C0CF88E70E94AC0180E40E943C
S1130790DA017801F701D080F2E0EF0EF11C8D2D23
S11307A00E94DA018D2D0E94DA018E149F0491F7C4
S11307B00E94D601EEE4F1E081818F548D8781E2BD
S11307C08E87808192E0980F9F709F8790E00296B9
S11307D0807F992795958795959587959595879584
S11307E095958795805F888B8FE7898B65E0CE012F
S11307F00D960E94F00188E70E94AC0180E40E94FB
S1130800DA01F801F1800E5F1F4F8F2D0E94DA018B
S11308108F2D0E94DA018016910699F70E94D60165
S11308200EE411E0F801818180558D8780819EE07E
S1130830980F9F709F8790E00E96807F99279295DE
S113084082958F7089279F708927805F888B65E0E8
S1130850CE010D960E94F001F8018081845F8083AF
S113086043C088E70E94AC0180E40E94DA018F2D26
S113087090E08C01000F111F080F191F000F111FAA
S113088004581F4F0F2EF6E0FF2EF02DF80184912F
S11308900E94DA01FA940F5F1F4FF110F7CF0E9404
S11308A0D601EEE4F1E080818A5F80831DC08091EF
S11308B000018230B1F68E010F5F1F4F8F2D90E043
S11308C05C01AA0CBB1C8A0D9B1D880F991F9C01FF
S11308D024583F4F59014E013DE0830E911C68019D
S11308E0EE24E394F12C0FCF61960FB6F894DEBF9B
S11308F00FBECDBFDF91CF911F910F91FF90EF906D
S1130900DF90CF90BF90AF909F908F907F906F902B
S11309100895CF93DF93EC018881882331F02196E9
S11309200E94D20289918111FBCFDF91CF9108956A
S11309301092C50087E68093C400E0ECF0E01082DA
S113094088E98093C10086E08093C200808180643E
S113095080830895E0ECF0E0908195FFFDCF8093D3
S1130960C6000895ECE7F0E0808180648083EAE7C4
S1130970F0E080818768808308951F920F920FB6FC
S11309800F9211248F938091C600809351018F910F
S11309900F900FBE0F901F901895CF93C82F67E04C
S11309A080E00E943A028C2F0E94D2028AE291E0F7
S11309B00E948904CF9108958FEF8AB917B8209ABD
S11309C00E94B2040E9498040E94A3018FEA0E942C
S11309D0A5020E94770260E080E00E943A0281E072
S11309E091E00E94890478940CE710E09924939490
S11309F0CAE7D0E00F2EF8E7AF2EB12CF02D0F2E62
S1130A00F6E65F2EF02D0F2EF2E63F2EF02D0F2E80
S1130A10FCE66F2EF02D0F2EF2E74F2EF02DF8018D
S1130A20808189258083888180648883888186FD8C
S1130A30FDCFF501E080F180F80180818925808374
S1130A40888180648883888186FDFDCFF501C0801C
S1130A50D180809151018F3469F460E080E00E947C
S1130A603A0288E091E00E9489048AE191E00E94C0
S1130A7089042EC080915101883469F460E080E0DB
S1130A800E943A028CE291E00E9489048AE191E09A
S1130A900E9489041DC080915101843469F460E08E
S1130AA080E00E943A0284E391E00E9489048AE192
S1130AB091E00E9489040CC060E080E00E943A0248
S1130AC08FE391E00E9489048AE191E00E94890405
S1130AD0C701875692408A31910508F478C04A9735
S1130AE0883C910508F47DC0F9E4EF16F3E0FF06B5
S1130AF008F079C08E519F4F883C910508F478C066
S1130B008FE9E81681E0F80608F474C0C6018E592E
S1130B1092400B9708F452C0C601895A9240883C0F
S1130B209105A0F0E1E7CE16E3E0DE0688F48D52ED
S1130B309F4F883C910588F0F6EDCF16F1E0DF0673
S1130B4068F40F2EF2E47F2EF02D08C0752C06C039
S1130B500F2EF6E47F2EF02D01C0732C8EE4881244
S1130B6004C0781621F0F72C22C0F82C20C00F2ED8
S1130B70F3E5FF2EF02D1BC00F2EFEE47F2EF02D8B
S1130B800F2EF3E5FF2EF02D12C00F2EFEE48F2E54
S1130B90F02D0F2EFEE47F2EF02D0F2EF3E5FF2E09
S1130BA0F02D05C08F2C0F2EFEE47F2EF02D8F2DFF
S1130BB00E94CD048F2D0E94AA0431CFEEE48E163C
S1130BC0D9F2F82C0F2EFEE47F2EF02DF0CFC601C3
S1130BD08E5992400B97C8F20F2EFEE48F2EF02D03
S1130BE09BCFF62C0BC00F2EFCE4FF2EF02D06C07D
S1130BF0F42C04C00F2EF2E5FF2EF02DC6018E5901
S1110C0092400B9778F28F2C87CFF894FFCF99
S1130C0E0148656C6C6F21004F62737461636C658F
S1130C1E20446574656374656400202020202020C0
S1130C2E20202020202020202020200041627573C7
S1130C3E6564210044726976696E672E2E2E005506
S1110C4E6E6B6E6F776E2053746174650000D8
S9030000FC
